{
  "_format": "hh-sol-artifact-1",
  "contractName": "AutomaticPayments",
  "sourceName": "contracts/AutomaticPayments.sol",
  "abi": [
    {
      "inputs": [
        {
          "internalType": "address",
          "name": "trustedForwarder",
          "type": "address"
        }
      ],
      "stateMutability": "nonpayable",
      "type": "constructor"
    },
    {
      "inputs": [
        {
          "internalType": "address",
          "name": "owner",
          "type": "address"
        }
      ],
      "name": "OwnableInvalidOwner",
      "type": "error"
    },
    {
      "inputs": [
        {
          "internalType": "address",
          "name": "account",
          "type": "address"
        }
      ],
      "name": "OwnableUnauthorizedAccount",
      "type": "error"
    },
    {
      "anonymous": false,
      "inputs": [
        {
          "indexed": true,
          "internalType": "address",
          "name": "previousOwner",
          "type": "address"
        },
        {
          "indexed": true,
          "internalType": "address",
          "name": "newOwner",
          "type": "address"
        }
      ],
      "name": "OwnershipTransferred",
      "type": "event"
    },
    {
      "anonymous": false,
      "inputs": [
        {
          "indexed": true,
          "internalType": "address",
          "name": "from",
          "type": "address"
        },
        {
          "indexed": true,
          "internalType": "address",
          "name": "to",
          "type": "address"
        },
        {
          "indexed": false,
          "internalType": "uint256",
          "name": "amount",
          "type": "uint256"
        },
        {
          "indexed": false,
          "internalType": "uint256",
          "name": "frequency",
          "type": "uint256"
        },
        {
          "indexed": false,
          "internalType": "uint256",
          "name": "validUntil",
          "type": "uint256"
        },
        {
          "indexed": true,
          "internalType": "address",
          "name": "tokenAddress",
          "type": "address"
        }
      ],
      "name": "PaymentAuthorized",
      "type": "event"
    },
    {
      "anonymous": false,
      "inputs": [
        {
          "indexed": true,
          "internalType": "address",
          "name": "from",
          "type": "address"
        },
        {
          "indexed": true,
          "internalType": "address",
          "name": "to",
          "type": "address"
        }
      ],
      "name": "PaymentCancelled",
      "type": "event"
    },
    {
      "anonymous": false,
      "inputs": [
        {
          "indexed": true,
          "internalType": "address",
          "name": "from",
          "type": "address"
        },
        {
          "indexed": true,
          "internalType": "address",
          "name": "to",
          "type": "address"
        },
        {
          "indexed": false,
          "internalType": "uint256",
          "name": "amount",
          "type": "uint256"
        },
        {
          "indexed": false,
          "internalType": "uint256",
          "name": "timestamp",
          "type": "uint256"
        },
        {
          "indexed": true,
          "internalType": "address",
          "name": "tokenAddress",
          "type": "address"
        }
      ],
      "name": "PaymentExecuted",
      "type": "event"
    },
    {
      "inputs": [
        {
          "internalType": "address",
          "name": "to",
          "type": "address"
        },
        {
          "internalType": "uint256",
          "name": "amount",
          "type": "uint256"
        },
        {
          "internalType": "uint256",
          "name": "frequency",
          "type": "uint256"
        },
        {
          "internalType": "uint256",
          "name": "validUntil",
          "type": "uint256"
        },
        {
          "internalType": "address",
          "name": "tokenAddress",
          "type": "address"
        }
      ],
      "name": "authorizePayment",
      "outputs": [],
      "stateMutability": "nonpayable",
      "type": "function"
    },
    {
      "inputs": [
        {
          "internalType": "address",
          "name": "from",
          "type": "address"
        },
        {
          "internalType": "address",
          "name": "to",
          "type": "address"
        }
      ],
      "name": "canExecutePayment",
      "outputs": [
        {
          "internalType": "bool",
          "name": "",
          "type": "bool"
        }
      ],
      "stateMutability": "view",
      "type": "function"
    },
    {
      "inputs": [
        {
          "internalType": "address",
          "name": "to",
          "type": "address"
        }
      ],
      "name": "cancelPayment",
      "outputs": [],
      "stateMutability": "nonpayable",
      "type": "function"
    },
    {
      "inputs": [
        {
          "internalType": "address",
          "name": "from",
          "type": "address"
        },
        {
          "internalType": "address",
          "name": "to",
          "type": "address"
        }
      ],
      "name": "executePayment",
      "outputs": [],
      "stateMutability": "nonpayable",
      "type": "function"
    },
    {
      "inputs": [
        {
          "internalType": "address",
          "name": "from",
          "type": "address"
        },
        {
          "internalType": "address",
          "name": "to",
          "type": "address"
        }
      ],
      "name": "getLastPaymentTime",
      "outputs": [
        {
          "internalType": "uint256",
          "name": "",
          "type": "uint256"
        }
      ],
      "stateMutability": "view",
      "type": "function"
    },
    {
      "inputs": [
        {
          "internalType": "address",
          "name": "from",
          "type": "address"
        },
        {
          "internalType": "address",
          "name": "to",
          "type": "address"
        }
      ],
      "name": "getPaymentInfo",
      "outputs": [
        {
          "components": [
            {
              "internalType": "address",
              "name": "to",
              "type": "address"
            },
            {
              "internalType": "uint256",
              "name": "amount",
              "type": "uint256"
            },
            {
              "internalType": "uint256",
              "name": "frequency",
              "type": "uint256"
            },
            {
              "internalType": "uint256",
              "name": "validUntil",
              "type": "uint256"
            },
            {
              "internalType": "bool",
              "name": "isActive",
              "type": "bool"
            },
            {
              "internalType": "address",
              "name": "tokenAddress",
              "type": "address"
            }
          ],
          "internalType": "struct AutomaticPayments.RecurringPayment",
          "name": "",
          "type": "tuple"
        }
      ],
      "stateMutability": "view",
      "type": "function"
    },
    {
      "inputs": [
        {
          "internalType": "address",
          "name": "forwarder",
          "type": "address"
        }
      ],
      "name": "isTrustedForwarder",
      "outputs": [
        {
          "internalType": "bool",
          "name": "",
          "type": "bool"
        }
      ],
      "stateMutability": "view",
      "type": "function"
    },
    {
      "inputs": [
        {
          "internalType": "address",
          "name": "",
          "type": "address"
        },
        {
          "internalType": "address",
          "name": "",
          "type": "address"
        }
      ],
      "name": "lastPaymentTime",
      "outputs": [
        {
          "internalType": "uint256",
          "name": "",
          "type": "uint256"
        }
      ],
      "stateMutability": "view",
      "type": "function"
    },
    {
      "inputs": [],
      "name": "owner",
      "outputs": [
        {
          "internalType": "address",
          "name": "",
          "type": "address"
        }
      ],
      "stateMutability": "view",
      "type": "function"
    },
    {
      "inputs": [
        {
          "internalType": "address",
          "name": "",
          "type": "address"
        },
        {
          "internalType": "address",
          "name": "",
          "type": "address"
        }
      ],
      "name": "payments",
      "outputs": [
        {
          "internalType": "address",
          "name": "to",
          "type": "address"
        },
        {
          "internalType": "uint256",
          "name": "amount",
          "type": "uint256"
        },
        {
          "internalType": "uint256",
          "name": "frequency",
          "type": "uint256"
        },
        {
          "internalType": "uint256",
          "name": "validUntil",
          "type": "uint256"
        },
        {
          "internalType": "bool",
          "name": "isActive",
          "type": "bool"
        },
        {
          "internalType": "address",
          "name": "tokenAddress",
          "type": "address"
        }
      ],
      "stateMutability": "view",
      "type": "function"
    },
    {
      "inputs": [],
      "name": "renounceOwnership",
      "outputs": [],
      "stateMutability": "nonpayable",
      "type": "function"
    },
    {
      "inputs": [
        {
          "internalType": "address",
          "name": "newOwner",
          "type": "address"
        }
      ],
      "name": "transferOwnership",
      "outputs": [],
      "stateMutability": "nonpayable",
      "type": "function"
    },
    {
      "inputs": [],
      "name": "trustedForwarder",
      "outputs": [
        {
          "internalType": "address",
          "name": "",
          "type": "address"
        }
      ],
      "stateMutability": "view",
      "type": "function"
    }
  ],
  "bytecode": "0x60a060405234801561001057600080fd5b5060405161224638038061224683398181016040528101906100329190610218565b33818073ffffffffffffffffffffffffffffffffffffffff1660808173ffffffffffffffffffffffffffffffffffffffff168152505050600073ffffffffffffffffffffffffffffffffffffffff168173ffffffffffffffffffffffffffffffffffffffff16036100db5760006040517f1e4fbdf70000000000000000000000000000000000000000000000000000000081526004016100d29190610254565b60405180910390fd5b6100ea816100f160201b60201c565b505061026f565b60008060009054906101000a900473ffffffffffffffffffffffffffffffffffffffff169050816000806101000a81548173ffffffffffffffffffffffffffffffffffffffff021916908373ffffffffffffffffffffffffffffffffffffffff1602179055508173ffffffffffffffffffffffffffffffffffffffff168173ffffffffffffffffffffffffffffffffffffffff167f8be0079c531659141344cd1fd0a4f28419497f9722a3daafe3b4186f6b6457e060405160405180910390a35050565b600080fd5b600073ffffffffffffffffffffffffffffffffffffffff82169050919050565b60006101e5826101ba565b9050919050565b6101f5816101da565b811461020057600080fd5b50565b600081519050610212816101ec565b92915050565b60006020828403121561022e5761022d6101b5565b5b600061023c84828501610203565b91505092915050565b61024e816101da565b82525050565b60006020820190506102696000830184610245565b92915050565b608051611fbc61028a6000396000610b950152611fbc6000f3fe608060405234801561001057600080fd5b50600436106100cf5760003560e01c80637da0a8771161008c5780639616a899116100665780639616a899146101fe5780639e3f80091461022e578063e75d5da414610263578063f2fde38b14610293576100cf565b80637da0a877146101a65780638da5cb5b146101c45780638de1f89c146101e2576100cf565b806320f50c30146100d45780632602cc9814610104578063572b6c051461013457806370cfae5514610164578063715018a61461018057806371a466a01461018a575b600080fd5b6100ee60048036038101906100e99190611554565b6102af565b6040516100fb9190611652565b60405180910390f35b61011e60048036038101906101199190611554565b61042b565b60405161012b919061167c565b60405180910390f35b61014e60048036038101906101499190611697565b610586565b60405161015b919061167c565b60405180910390f35b61017e600480360381019061017991906116f0565b6105c5565b005b6101886109a7565b005b6101a4600480360381019061019f9190611697565b6109bb565b005b6101ae610b91565b6040516101bb919061177a565b60405180910390f35b6101cc610bb9565b6040516101d9919061177a565b60405180910390f35b6101fc60048036038101906101f79190611554565b610be2565b005b61021860048036038101906102139190611554565b6110d6565b60405161022591906117a4565b60405180910390f35b61024860048036038101906102439190611554565b61115d565b60405161025a969594939291906117bf565b60405180910390f35b61027d60048036038101906102789190611554565b6111f3565b60405161028a91906117a4565b60405180910390f35b6102ad60048036038101906102a89190611697565b611218565b005b6102b761148d565b600160008473ffffffffffffffffffffffffffffffffffffffff1673ffffffffffffffffffffffffffffffffffffffff16815260200190815260200160002060008373ffffffffffffffffffffffffffffffffffffffff1673ffffffffffffffffffffffffffffffffffffffff1681526020019081526020016000206040518060c00160405290816000820160009054906101000a900473ffffffffffffffffffffffffffffffffffffffff1673ffffffffffffffffffffffffffffffffffffffff1673ffffffffffffffffffffffffffffffffffffffff1681526020016001820154815260200160028201548152602001600382015481526020016004820160009054906101000a900460ff161515151581526020016004820160019054906101000a900473ffffffffffffffffffffffffffffffffffffffff1673ffffffffffffffffffffffffffffffffffffffff1673ffffffffffffffffffffffffffffffffffffffff1681525050905092915050565b600080600160008573ffffffffffffffffffffffffffffffffffffffff1673ffffffffffffffffffffffffffffffffffffffff16815260200190815260200160002060008473ffffffffffffffffffffffffffffffffffffffff1673ffffffffffffffffffffffffffffffffffffffff16815260200190815260200160002090508060040160009054906101000a900460ff1615806104cd5750806003015442115b156104dc576000915050610580565b6000600260008673ffffffffffffffffffffffffffffffffffffffff1673ffffffffffffffffffffffffffffffffffffffff16815260200190815260200160002060008573ffffffffffffffffffffffffffffffffffffffff1673ffffffffffffffffffffffffffffffffffffffff168152602001908152602001600020549050600081148061057b5750816002015481610577919061184f565b4210155b925050505b92915050565b6000610590610b91565b73ffffffffffffffffffffffffffffffffffffffff168273ffffffffffffffffffffffffffffffffffffffff16149050919050565b600073ffffffffffffffffffffffffffffffffffffffff168573ffffffffffffffffffffffffffffffffffffffff1603610634576040517f08c379a000000000000000000000000000000000000000000000000000000000815260040161062b906118e0565b60405180910390fd5b600073ffffffffffffffffffffffffffffffffffffffff168173ffffffffffffffffffffffffffffffffffffffff16036106a3576040517f08c379a000000000000000000000000000000000000000000000000000000000815260040161069a9061194c565b60405180910390fd5b600084116106e6576040517f08c379a00000000000000000000000000000000000000000000000000000000081526004016106dd906119b8565b60405180910390fd5b60008311610729576040517f08c379a000000000000000000000000000000000000000000000000000000000815260040161072090611a24565b60405180910390fd5b42821161076b576040517f08c379a000000000000000000000000000000000000000000000000000000000815260040161076290611a90565b60405180910390fd5b6040518060c001604052808673ffffffffffffffffffffffffffffffffffffffff1681526020018581526020018481526020018381526020016001151581526020018273ffffffffffffffffffffffffffffffffffffffff16815250600160006107d361129e565b73ffffffffffffffffffffffffffffffffffffffff1673ffffffffffffffffffffffffffffffffffffffff16815260200190815260200160002060008773ffffffffffffffffffffffffffffffffffffffff1673ffffffffffffffffffffffffffffffffffffffff16815260200190815260200160002060008201518160000160006101000a81548173ffffffffffffffffffffffffffffffffffffffff021916908373ffffffffffffffffffffffffffffffffffffffff16021790555060208201518160010155604082015181600201556060820151816003015560808201518160040160006101000a81548160ff02191690831515021790555060a08201518160040160016101000a81548173ffffffffffffffffffffffffffffffffffffffff021916908373ffffffffffffffffffffffffffffffffffffffff1602179055509050508073ffffffffffffffffffffffffffffffffffffffff168573ffffffffffffffffffffffffffffffffffffffff1661094f61129e565b73ffffffffffffffffffffffffffffffffffffffff167f42f9595a7213080f2ffb80bc4cf11463a7679a9dafcdac87ba6c40890c61e51d87878760405161099893929190611ab0565b60405180910390a45050505050565b6109af6112ad565b6109b96000611334565b565b600160006109c761129e565b73ffffffffffffffffffffffffffffffffffffffff1673ffffffffffffffffffffffffffffffffffffffff16815260200190815260200160002060008273ffffffffffffffffffffffffffffffffffffffff1673ffffffffffffffffffffffffffffffffffffffff16815260200190815260200160002060040160009054906101000a900460ff16610a8e576040517f08c379a0000000000000000000000000000000000000000000000000000000008152600401610a8590611b33565b60405180910390fd5b600060016000610a9c61129e565b73ffffffffffffffffffffffffffffffffffffffff1673ffffffffffffffffffffffffffffffffffffffff16815260200190815260200160002060008373ffffffffffffffffffffffffffffffffffffffff1673ffffffffffffffffffffffffffffffffffffffff16815260200190815260200160002060040160006101000a81548160ff0219169083151502179055508073ffffffffffffffffffffffffffffffffffffffff16610b4c61129e565b73ffffffffffffffffffffffffffffffffffffffff167f96b49b1990fa1d6800553c95480eef28f2decc50b1445b3d0d8bc06114e6e5ee60405160405180910390a350565b60007f0000000000000000000000000000000000000000000000000000000000000000905090565b60008060009054906101000a900473ffffffffffffffffffffffffffffffffffffffff16905090565b6000600160008473ffffffffffffffffffffffffffffffffffffffff1673ffffffffffffffffffffffffffffffffffffffff16815260200190815260200160002060008373ffffffffffffffffffffffffffffffffffffffff1673ffffffffffffffffffffffffffffffffffffffff16815260200190815260200160002090508060040160009054906101000a900460ff16610cb3576040517f08c379a0000000000000000000000000000000000000000000000000000000008152600401610caa90611b9f565b60405180910390fd5b8060030154421115610cfa576040517f08c379a0000000000000000000000000000000000000000000000000000000008152600401610cf190611c0b565b60405180910390fd5b6000600260008573ffffffffffffffffffffffffffffffffffffffff1673ffffffffffffffffffffffffffffffffffffffff16815260200190815260200160002060008473ffffffffffffffffffffffffffffffffffffffff1673ffffffffffffffffffffffffffffffffffffffff1681526020019081526020016000205490506000811480610d995750816002015481610d95919061184f565b4210155b610dd8576040517f08c379a0000000000000000000000000000000000000000000000000000000008152600401610dcf90611c77565b60405180910390fd5b60008260040160019054906101000a900473ffffffffffffffffffffffffffffffffffffffff16905082600101548173ffffffffffffffffffffffffffffffffffffffff166370a08231876040518263ffffffff1660e01b8152600401610e3f919061177a565b602060405180830381865afa158015610e5c573d6000803e3d6000fd5b505050506040513d601f19601f82011682018060405250810190610e809190611cac565b1015610ec1576040517f08c379a0000000000000000000000000000000000000000000000000000000008152600401610eb890611d25565b60405180910390fd5b42600260008773ffffffffffffffffffffffffffffffffffffffff1673ffffffffffffffffffffffffffffffffffffffff16815260200190815260200160002060008673ffffffffffffffffffffffffffffffffffffffff1673ffffffffffffffffffffffffffffffffffffffff168152602001908152602001600020819055508073ffffffffffffffffffffffffffffffffffffffff166323b872dd868560000160009054906101000a900473ffffffffffffffffffffffffffffffffffffffff1686600101546040518463ffffffff1660e01b8152600401610fa793929190611d45565b6020604051808303816000875af1158015610fc6573d6000803e3d6000fd5b505050506040513d601f19601f82011682018060405250810190610fea9190611da8565b611029576040517f08c379a000000000000000000000000000000000000000000000000000000000815260040161102090611e21565b60405180910390fd5b8260040160019054906101000a900473ffffffffffffffffffffffffffffffffffffffff1673ffffffffffffffffffffffffffffffffffffffff168473ffffffffffffffffffffffffffffffffffffffff168673ffffffffffffffffffffffffffffffffffffffff167f7dd7ffefd06c58b57f8aa39167642dc66b29dc7ab6ba2f1de513e2c066e35ef28660010154426040516110c7929190611e41565b60405180910390a45050505050565b6000600260008473ffffffffffffffffffffffffffffffffffffffff1673ffffffffffffffffffffffffffffffffffffffff16815260200190815260200160002060008373ffffffffffffffffffffffffffffffffffffffff1673ffffffffffffffffffffffffffffffffffffffff16815260200190815260200160002054905092915050565b6001602052816000526040600020602052806000526040600020600091509150508060000160009054906101000a900473ffffffffffffffffffffffffffffffffffffffff16908060010154908060020154908060030154908060040160009054906101000a900460ff16908060040160019054906101000a900473ffffffffffffffffffffffffffffffffffffffff16905086565b6002602052816000526040600020602052806000526040600020600091509150505481565b6112206112ad565b600073ffffffffffffffffffffffffffffffffffffffff168173ffffffffffffffffffffffffffffffffffffffff16036112925760006040517f1e4fbdf7000000000000000000000000000000000000000000000000000000008152600401611289919061177a565b60405180910390fd5b61129b81611334565b50565b60006112a86113f8565b905090565b6112b561129e565b73ffffffffffffffffffffffffffffffffffffffff166112d3610bb9565b73ffffffffffffffffffffffffffffffffffffffff1614611332576112f661129e565b6040517f118cdaa7000000000000000000000000000000000000000000000000000000008152600401611329919061177a565b60405180910390fd5b565b60008060009054906101000a900473ffffffffffffffffffffffffffffffffffffffff169050816000806101000a81548173ffffffffffffffffffffffffffffffffffffffff021916908373ffffffffffffffffffffffffffffffffffffffff1602179055508173ffffffffffffffffffffffffffffffffffffffff168173ffffffffffffffffffffffffffffffffffffffff167f8be0079c531659141344cd1fd0a4f28419497f9722a3daafe3b4186f6b6457e060405160405180910390a35050565b60008060003690509050600061140c61146d565b905061141733610586565b80156114235750808210155b1561145d5760003682846114379190611e6a565b90809261144693929190611ea8565b906114519190611f27565b60601c9250505061146a565b61146561147c565b925050505b90565b6000611477611484565b905090565b600033905090565b60006014905090565b6040518060c00160405280600073ffffffffffffffffffffffffffffffffffffffff168152602001600081526020016000815260200160008152602001600015158152602001600073ffffffffffffffffffffffffffffffffffffffff1681525090565b600080fd5b600073ffffffffffffffffffffffffffffffffffffffff82169050919050565b6000611521826114f6565b9050919050565b61153181611516565b811461153c57600080fd5b50565b60008135905061154e81611528565b92915050565b6000806040838503121561156b5761156a6114f1565b5b60006115798582860161153f565b925050602061158a8582860161153f565b9150509250929050565b61159d81611516565b82525050565b6000819050919050565b6115b6816115a3565b82525050565b60008115159050919050565b6115d1816115bc565b82525050565b60c0820160008201516115ed6000850182611594565b50602082015161160060208501826115ad565b50604082015161161360408501826115ad565b50606082015161162660608501826115ad565b50608082015161163960808501826115c8565b5060a082015161164c60a0850182611594565b50505050565b600060c08201905061166760008301846115d7565b92915050565b611676816115bc565b82525050565b6000602082019050611691600083018461166d565b92915050565b6000602082840312156116ad576116ac6114f1565b5b60006116bb8482850161153f565b91505092915050565b6116cd816115a3565b81146116d857600080fd5b50565b6000813590506116ea816116c4565b92915050565b600080600080600060a0868803121561170c5761170b6114f1565b5b600061171a8882890161153f565b955050602061172b888289016116db565b945050604061173c888289016116db565b935050606061174d888289016116db565b925050608061175e8882890161153f565b9150509295509295909350565b61177481611516565b82525050565b600060208201905061178f600083018461176b565b92915050565b61179e816115a3565b82525050565b60006020820190506117b96000830184611795565b92915050565b600060c0820190506117d4600083018961176b565b6117e16020830188611795565b6117ee6040830187611795565b6117fb6060830186611795565b611808608083018561166d565b61181560a083018461176b565b979650505050505050565b7f4e487b7100000000000000000000000000000000000000000000000000000000600052601160045260246000fd5b600061185a826115a3565b9150611865836115a3565b925082820190508082111561187d5761187c611820565b5b92915050565b600082825260208201905092915050565b7f496e76616c696420726563697069656e74000000000000000000000000000000600082015250565b60006118ca601183611883565b91506118d582611894565b602082019050919050565b600060208201905081810360008301526118f9816118bd565b9050919050565b7f496e76616c696420746f6b656e20616464726573730000000000000000000000600082015250565b6000611936601583611883565b915061194182611900565b602082019050919050565b6000602082019050818103600083015261196581611929565b9050919050565b7f416d6f756e74206d7573742062652067726561746572207468616e2030000000600082015250565b60006119a2601d83611883565b91506119ad8261196c565b602082019050919050565b600060208201905081810360008301526119d181611995565b9050919050565b7f4672657175656e6379206d7573742062652067726561746572207468616e2030600082015250565b6000611a0e602083611883565b9150611a19826119d8565b602082019050919050565b60006020820190508181036000830152611a3d81611a01565b9050919050565b7f496e76616c69642065787069726174696f6e2074696d65000000000000000000600082015250565b6000611a7a601783611883565b9150611a8582611a44565b602082019050919050565b60006020820190508181036000830152611aa981611a6d565b9050919050565b6000606082019050611ac56000830186611795565b611ad26020830185611795565b611adf6040830184611795565b949350505050565b7f4e6f20616374697665207061796d656e7420666f756e64000000000000000000600082015250565b6000611b1d601783611883565b9150611b2882611ae7565b602082019050919050565b60006020820190508181036000830152611b4c81611b10565b9050919050565b7f5061796d656e74206e6f7420617574686f72697a656400000000000000000000600082015250565b6000611b89601683611883565b9150611b9482611b53565b602082019050919050565b60006020820190508181036000830152611bb881611b7c565b9050919050565b7f417574686f72697a6174696f6e20657870697265640000000000000000000000600082015250565b6000611bf5601583611883565b9150611c0082611bbf565b602082019050919050565b60006020820190508181036000830152611c2481611be8565b9050919050565b7f5061796d656e7420746f6f20736f6f6e00000000000000000000000000000000600082015250565b6000611c61601083611883565b9150611c6c82611c2b565b602082019050919050565b60006020820190508181036000830152611c9081611c54565b9050919050565b600081519050611ca6816116c4565b92915050565b600060208284031215611cc257611cc16114f1565b5b6000611cd084828501611c97565b91505092915050565b7f496e73756666696369656e7420746f6b656e2062616c616e6365000000000000600082015250565b6000611d0f601a83611883565b9150611d1a82611cd9565b602082019050919050565b60006020820190508181036000830152611d3e81611d02565b9050919050565b6000606082019050611d5a600083018661176b565b611d67602083018561176b565b611d746040830184611795565b949350505050565b611d85816115bc565b8114611d9057600080fd5b50565b600081519050611da281611d7c565b92915050565b600060208284031215611dbe57611dbd6114f1565b5b6000611dcc84828501611d93565b91505092915050565b7f5472616e73666572206661696c65640000000000000000000000000000000000600082015250565b6000611e0b600f83611883565b9150611e1682611dd5565b602082019050919050565b60006020820190508181036000830152611e3a81611dfe565b9050919050565b6000604082019050611e566000830185611795565b611e636020830184611795565b9392505050565b6000611e75826115a3565b9150611e80836115a3565b9250828203905081811115611e9857611e97611820565b5b92915050565b600080fd5b600080fd5b60008085851115611ebc57611ebb611e9e565b5b83861115611ecd57611ecc611ea3565b5b6001850283019150848603905094509492505050565b600082905092915050565b60007fffffffffffffffffffffffffffffffffffffffff00000000000000000000000082169050919050565b600082821b905092915050565b6000611f338383611ee3565b82611f3e8135611eee565b92506014821015611f7e57611f797fffffffffffffffffffffffffffffffffffffffff00000000000000000000000083601403600802611f1a565b831692505b50509291505056fea2646970667358221220e646379a0a52ac03cac4ccb222c85465d18fed15c305424956ba61d872fe021264736f6c634300081c0033",
  "linkReferences": {},
  "deployedLinkReferences": {}
}