{
  "_format": "hh-sol-artifact-1",
  "contractName": "TrustedForwarder",
  "sourceName": "contracts/TrustedForwarder.sol",
  "abi": [
    {
      "inputs": [],
      "stateMutability": "nonpayable",
      "type": "constructor"
    },
    {
      "inputs": [],
      "name": "ECDSAInvalidSignature",
      "type": "error"
    },
    {
      "inputs": [
        {
          "internalType": "uint256",
          "name": "length",
          "type": "uint256"
        }
      ],
      "name": "ECDSAInvalidSignatureLength",
      "type": "error"
    },
    {
      "inputs": [
        {
          "internalType": "bytes32",
          "name": "s",
          "type": "bytes32"
        }
      ],
      "name": "ECDSAInvalidSignatureS",
      "type": "error"
    },
    {
      "inputs": [],
      "name": "InvalidShortString",
      "type": "error"
    },
    {
      "inputs": [
        {
          "internalType": "address",
          "name": "owner",
          "type": "address"
        }
      ],
      "name": "OwnableInvalidOwner",
      "type": "error"
    },
    {
      "inputs": [
        {
          "internalType": "address",
          "name": "account",
          "type": "address"
        }
      ],
      "name": "OwnableUnauthorizedAccount",
      "type": "error"
    },
    {
      "inputs": [
        {
          "internalType": "string",
          "name": "str",
          "type": "string"
        }
      ],
      "name": "StringTooLong",
      "type": "error"
    },
    {
      "anonymous": false,
      "inputs": [],
      "name": "EIP712DomainChanged",
      "type": "event"
    },
    {
      "anonymous": false,
      "inputs": [
        {
          "indexed": false,
          "internalType": "address",
          "name": "from",
          "type": "address"
        },
        {
          "indexed": false,
          "internalType": "address",
          "name": "to",
          "type": "address"
        },
        {
          "indexed": false,
          "internalType": "bytes",
          "name": "data",
          "type": "bytes"
        }
      ],
      "name": "MetaTransactionExecuted",
      "type": "event"
    },
    {
      "anonymous": false,
      "inputs": [
        {
          "indexed": true,
          "internalType": "address",
          "name": "previousOwner",
          "type": "address"
        },
        {
          "indexed": true,
          "internalType": "address",
          "name": "newOwner",
          "type": "address"
        }
      ],
      "name": "OwnershipTransferred",
      "type": "event"
    },
    {
      "stateMutability": "payable",
      "type": "fallback"
    },
    {
      "inputs": [],
      "name": "eip712Domain",
      "outputs": [
        {
          "internalType": "bytes1",
          "name": "fields",
          "type": "bytes1"
        },
        {
          "internalType": "string",
          "name": "name",
          "type": "string"
        },
        {
          "internalType": "string",
          "name": "version",
          "type": "string"
        },
        {
          "internalType": "uint256",
          "name": "chainId",
          "type": "uint256"
        },
        {
          "internalType": "address",
          "name": "verifyingContract",
          "type": "address"
        },
        {
          "internalType": "bytes32",
          "name": "salt",
          "type": "bytes32"
        },
        {
          "internalType": "uint256[]",
          "name": "extensions",
          "type": "uint256[]"
        }
      ],
      "stateMutability": "view",
      "type": "function"
    },
    {
      "inputs": [
        {
          "components": [
            {
              "internalType": "address",
              "name": "from",
              "type": "address"
            },
            {
              "internalType": "address",
              "name": "to",
              "type": "address"
            },
            {
              "internalType": "uint256",
              "name": "value",
              "type": "uint256"
            },
            {
              "internalType": "uint256",
              "name": "gas",
              "type": "uint256"
            },
            {
              "internalType": "uint256",
              "name": "nonce",
              "type": "uint256"
            },
            {
              "internalType": "bytes",
              "name": "data",
              "type": "bytes"
            }
          ],
          "internalType": "struct TrustedForwarder.ForwardRequest",
          "name": "req",
          "type": "tuple"
        },
        {
          "internalType": "bytes",
          "name": "signature",
          "type": "bytes"
        }
      ],
      "name": "execute",
      "outputs": [
        {
          "internalType": "bool",
          "name": "",
          "type": "bool"
        },
        {
          "internalType": "bytes",
          "name": "",
          "type": "bytes"
        }
      ],
      "stateMutability": "payable",
      "type": "function"
    },
    {
      "inputs": [
        {
          "internalType": "address",
          "name": "from",
          "type": "address"
        }
      ],
      "name": "getNonce",
      "outputs": [
        {
          "internalType": "uint256",
          "name": "",
          "type": "uint256"
        }
      ],
      "stateMutability": "view",
      "type": "function"
    },
    {
      "inputs": [],
      "name": "owner",
      "outputs": [
        {
          "internalType": "address",
          "name": "",
          "type": "address"
        }
      ],
      "stateMutability": "view",
      "type": "function"
    },
    {
      "inputs": [],
      "name": "renounceOwnership",
      "outputs": [],
      "stateMutability": "nonpayable",
      "type": "function"
    },
    {
      "inputs": [
        {
          "internalType": "address",
          "name": "newOwner",
          "type": "address"
        }
      ],
      "name": "transferOwnership",
      "outputs": [],
      "stateMutability": "nonpayable",
      "type": "function"
    },
    {
      "inputs": [
        {
          "components": [
            {
              "internalType": "address",
              "name": "from",
              "type": "address"
            },
            {
              "internalType": "address",
              "name": "to",
              "type": "address"
            },
            {
              "internalType": "uint256",
              "name": "value",
              "type": "uint256"
            },
            {
              "internalType": "uint256",
              "name": "gas",
              "type": "uint256"
            },
            {
              "internalType": "uint256",
              "name": "nonce",
              "type": "uint256"
            },
            {
              "internalType": "bytes",
              "name": "data",
              "type": "bytes"
            }
          ],
          "internalType": "struct TrustedForwarder.ForwardRequest",
          "name": "req",
          "type": "tuple"
        },
        {
          "internalType": "bytes",
          "name": "signature",
          "type": "bytes"
        }
      ],
      "name": "verify",
      "outputs": [
        {
          "internalType": "bool",
          "name": "",
          "type": "bool"
        }
      ],
      "stateMutability": "view",
      "type": "function"
    },
    {
      "stateMutability": "payable",
      "type": "receive"
    }
  ],
  "bytecode": "0x61016060405234801561001157600080fd5b506040518060400160405280601081526020017f54727573746564466f72776172646572000000000000000000000000000000008152506040518060400160405280600181526020017f310000000000000000000000000000000000000000000000000000000000000081525033600073ffffffffffffffffffffffffffffffffffffffff168173ffffffffffffffffffffffffffffffffffffffff16036100f15760006040517f1e4fbdf70000000000000000000000000000000000000000000000000000000081526004016100e891906103d2565b60405180910390fd5b610100816101b060201b60201c565b5061011560018361027460201b90919060201c565b610120818152505061013160028261027460201b90919060201c565b6101408181525050818051906020012060e08181525050808051906020012061010081815250504660a0818152505061016e6102c460201b60201c565b608081815250503073ffffffffffffffffffffffffffffffffffffffff1660c08173ffffffffffffffffffffffffffffffffffffffff168152505050506108c8565b60008060009054906101000a900473ffffffffffffffffffffffffffffffffffffffff169050816000806101000a81548173ffffffffffffffffffffffffffffffffffffffff021916908373ffffffffffffffffffffffffffffffffffffffff1602179055508173ffffffffffffffffffffffffffffffffffffffff168173ffffffffffffffffffffffffffffffffffffffff167f8be0079c531659141344cd1fd0a4f28419497f9722a3daafe3b4186f6b6457e060405160405180910390a35050565b60006020835110156102965761028f8361031f60201b60201c565b90506102be565b826102a68361038760201b60201c565b60000190816102b5919061063d565b5060ff60001b90505b92915050565b60007f8b73c3c69bb8fe3d512ecc4cf759cc79239f7b179b0ffacaa9a75d522b39400f60e051610100514630604051602001610304959493929190610737565b60405160208183030381529060405280519060200120905090565b600080829050601f8151111561036c57826040517f305a27a9000000000000000000000000000000000000000000000000000000008152600401610363919061080f565b60405180910390fd5b80518161037890610861565b60001c1760001b915050919050565b6000819050919050565b600073ffffffffffffffffffffffffffffffffffffffff82169050919050565b60006103bc82610391565b9050919050565b6103cc816103b1565b82525050565b60006020820190506103e760008301846103c3565b92915050565b600081519050919050565b7f4e487b7100000000000000000000000000000000000000000000000000000000600052604160045260246000fd5b7f4e487b7100000000000000000000000000000000000000000000000000000000600052602260045260246000fd5b6000600282049050600182168061046e57607f821691505b60208210810361048157610480610427565b5b50919050565b60008190508160005260206000209050919050565b60006020601f8301049050919050565b600082821b905092915050565b6000600883026104e97fffffffffffffffffffffffffffffffffffffffffffffffffffffffffffffffff826104ac565b6104f386836104ac565b95508019841693508086168417925050509392505050565b6000819050919050565b6000819050919050565b600061053a6105356105308461050b565b610515565b61050b565b9050919050565b6000819050919050565b6105548361051f565b61056861056082610541565b8484546104b9565b825550505050565b600090565b61057d610570565b61058881848461054b565b505050565b5b818110156105ac576105a1600082610575565b60018101905061058e565b5050565b601f8211156105f1576105c281610487565b6105cb8461049c565b810160208510156105da578190505b6105ee6105e68561049c565b83018261058d565b50505b505050565b600082821c905092915050565b6000610614600019846008026105f6565b1980831691505092915050565b600061062d8383610603565b9150826002028217905092915050565b610646826103ed565b67ffffffffffffffff81111561065f5761065e6103f8565b5b6106698254610456565b6106748282856105b0565b600060209050601f8311600181146106a75760008415610695578287015190505b61069f8582610621565b865550610707565b601f1984166106b586610487565b60005b828110156106dd578489015182556001820191506020850194506020810190506106b8565b868310156106fa57848901516106f6601f891682610603565b8355505b6001600288020188555050505b505050505050565b6000819050919050565b6107228161070f565b82525050565b6107318161050b565b82525050565b600060a08201905061074c6000830188610719565b6107596020830187610719565b6107666040830186610719565b6107736060830185610728565b61078060808301846103c3565b9695505050505050565b600082825260208201905092915050565b60005b838110156107b957808201518184015260208101905061079e565b60008484015250505050565b6000601f19601f8301169050919050565b60006107e1826103ed565b6107eb818561078a565b93506107fb81856020860161079b565b610804816107c5565b840191505092915050565b6000602082019050818103600083015261082981846107d6565b905092915050565b600081519050919050565b6000819050602082019050919050565b6000610858825161070f565b80915050919050565b600061086c82610831565b826108768461083c565b90506108818161084c565b925060208210156108c1576108bc7fffffffffffffffffffffffffffffffffffffffffffffffffffffffffffffffff836020036008026104ac565b831692505b5050919050565b60805160a05160c05160e0516101005161012051610140516118ef61092260003960006108c80152600061088d01526000610d6a01526000610d49015260006109fc01526000610a5201526000610a7b01526118ef6000f3fe6080604052600436106100745760003560e01c806384b0196e1161004e57806384b0196e146100fc5780638da5cb5b1461012d578063bf5d3bdb14610158578063f2fde38b1461019557610075565b80632d0335ab1461007757806347153f82146100b4578063715018a6146100e557610075565b5b005b34801561008357600080fd5b5061009e60048036038101906100999190610f66565b6101be565b6040516100ab9190610fac565b60405180910390f35b6100ce60048036038101906100c99190611050565b610207565b6040516100dc929190611177565b60405180910390f35b3480156100f157600080fd5b506100fa610416565b005b34801561010857600080fd5b5061011161042a565b604051610124979695949392919061131d565b60405180910390f35b34801561013957600080fd5b506101426104d4565b60405161014f91906113a1565b60405180910390f35b34801561016457600080fd5b5061017f600480360381019061017a9190611050565b6104fd565b60405161018c91906113bc565b60405180910390f35b3480156101a157600080fd5b506101bc60048036038101906101b79190610f66565b6106b3565b005b6000600360008373ffffffffffffffffffffffffffffffffffffffff1673ffffffffffffffffffffffffffffffffffffffff168152602001908152602001600020549050919050565b600060606102168585856104fd565b610255576040517f08c379a000000000000000000000000000000000000000000000000000000000815260040161024c90611449565b60405180910390fd5b600185608001356102669190611498565b6003600087600001602081019061027d9190610f66565b73ffffffffffffffffffffffffffffffffffffffff1673ffffffffffffffffffffffffffffffffffffffff168152602001908152602001600020819055506000808660200160208101906102d19190610f66565b73ffffffffffffffffffffffffffffffffffffffff1687606001358860400135898060a0019061030191906114db565b8b60000160208101906103149190610f66565b604051602001610326939291906115c5565b6040516020818303038152906040526040516103429190611620565b600060405180830381858888f193505050503d8060008114610380576040519150601f19603f3d011682016040523d82523d6000602084013e610385565b606091505b50915091508161039757805160208201fd5b7f5845892132946850460bff5a0083f71031bc5bf9aadcd40f1de79423eac9b10b8760000160208101906103cb9190610f66565b8860200160208101906103de9190610f66565b898060a001906103ee91906114db565b6040516103fe9493929190611664565b60405180910390a18181935093505050935093915050565b61041e610739565b61042860006107c0565b565b60006060806000806000606061043e610884565b6104466108bf565b46306000801b600067ffffffffffffffff811115610467576104666116a4565b5b6040519080825280602002602001820160405280156104955781602001602082028036833780820191505090505b507f0f00000000000000000000000000000000000000000000000000000000000000959493929190965096509650965096509650965090919293949596565b60008060009054906101000a900473ffffffffffffffffffffffffffffffffffffffff16905090565b60008061060684848080601f016020809104026020016040519081016040528093929190818152602001838380828437600081840152601f19601f820116905080830192505050505050506105f87fdd8f4b70b0f4393e889bd39128a30628a78b61816a9eb8199759e7a349657e4888600001602081019061057f9190610f66565b8960200160208101906105929190610f66565b8a604001358b606001358c608001358d8060a001906105b191906114db565b6040516105bf9291906116d3565b60405180910390206040516020016105dd97969594939291906116ec565b604051602081830303815290604052805190602001206108fa565b61091490919063ffffffff16565b90508460800135600360008760000160208101906106249190610f66565b73ffffffffffffffffffffffffffffffffffffffff1673ffffffffffffffffffffffffffffffffffffffff168152602001908152602001600020541480156106a9575084600001602081019061067a9190610f66565b73ffffffffffffffffffffffffffffffffffffffff168173ffffffffffffffffffffffffffffffffffffffff16145b9150509392505050565b6106bb610739565b600073ffffffffffffffffffffffffffffffffffffffff168173ffffffffffffffffffffffffffffffffffffffff160361072d5760006040517f1e4fbdf700000000000000000000000000000000000000000000000000000000815260040161072491906113a1565b60405180910390fd5b610736816107c0565b50565b610741610940565b73ffffffffffffffffffffffffffffffffffffffff1661075f6104d4565b73ffffffffffffffffffffffffffffffffffffffff16146107be57610782610940565b6040517f118cdaa70000000000000000000000000000000000000000000000000000000081526004016107b591906113a1565b60405180910390fd5b565b60008060009054906101000a900473ffffffffffffffffffffffffffffffffffffffff169050816000806101000a81548173ffffffffffffffffffffffffffffffffffffffff021916908373ffffffffffffffffffffffffffffffffffffffff1602179055508173ffffffffffffffffffffffffffffffffffffffff168173ffffffffffffffffffffffffffffffffffffffff167f8be0079c531659141344cd1fd0a4f28419497f9722a3daafe3b4186f6b6457e060405160405180910390a35050565b60606108ba60017f000000000000000000000000000000000000000000000000000000000000000061094890919063ffffffff16565b905090565b60606108f560027f000000000000000000000000000000000000000000000000000000000000000061094890919063ffffffff16565b905090565b600061090d6109076109f8565b83610aaf565b9050919050565b6000806000806109248686610af0565b9250925092506109348282610b4c565b82935050505092915050565b600033905090565b606060ff60001b83146109655761095e83610cb0565b90506109f2565b8180546109719061178a565b80601f016020809104026020016040519081016040528092919081815260200182805461099d9061178a565b80156109ea5780601f106109bf576101008083540402835291602001916109ea565b820191906000526020600020905b8154815290600101906020018083116109cd57829003601f168201915b505050505090505b92915050565b60007f000000000000000000000000000000000000000000000000000000000000000073ffffffffffffffffffffffffffffffffffffffff163073ffffffffffffffffffffffffffffffffffffffff16148015610a7457507f000000000000000000000000000000000000000000000000000000000000000046145b15610aa1577f00000000000000000000000000000000000000000000000000000000000000009050610aac565b610aa9610d24565b90505b90565b60006040517f190100000000000000000000000000000000000000000000000000000000000081528360028201528260228201526042812091505092915050565b60008060006041845103610b355760008060006020870151925060408701519150606087015160001a9050610b2788828585610dba565b955095509550505050610b45565b60006002855160001b9250925092505b9250925092565b60006003811115610b6057610b5f6117bb565b5b826003811115610b7357610b726117bb565b5b0315610cac5760016003811115610b8d57610b8c6117bb565b5b826003811115610ba057610b9f6117bb565b5b03610bd7576040517ff645eedf00000000000000000000000000000000000000000000000000000000815260040160405180910390fd5b60026003811115610beb57610bea6117bb565b5b826003811115610bfe57610bfd6117bb565b5b03610c43578060001c6040517ffce698f7000000000000000000000000000000000000000000000000000000008152600401610c3a9190610fac565b60405180910390fd5b600380811115610c5657610c556117bb565b5b826003811115610c6957610c686117bb565b5b03610cab57806040517fd78bce0c000000000000000000000000000000000000000000000000000000008152600401610ca291906117ea565b60405180910390fd5b5b5050565b60606000610cbd83610eae565b90506000602067ffffffffffffffff811115610cdc57610cdb6116a4565b5b6040519080825280601f01601f191660200182016040528015610d0e5781602001600182028036833780820191505090505b5090508181528360208201528092505050919050565b60007f8b73c3c69bb8fe3d512ecc4cf759cc79239f7b179b0ffacaa9a75d522b39400f7f00000000000000000000000000000000000000000000000000000000000000007f00000000000000000000000000000000000000000000000000000000000000004630604051602001610d9f959493929190611805565b60405160208183030381529060405280519060200120905090565b60008060007f7fffffffffffffffffffffffffffffff5d576e7357a4501ddfe92f46681b20a08460001c1115610dfa576000600385925092509250610ea4565b600060018888888860405160008152602001604052604051610e1f9493929190611874565b6020604051602081039080840390855afa158015610e41573d6000803e3d6000fd5b505050602060405103519050600073ffffffffffffffffffffffffffffffffffffffff168173ffffffffffffffffffffffffffffffffffffffff1603610e9557600060016000801b93509350935050610ea4565b8060008060001b935093509350505b9450945094915050565b60008060ff8360001c169050601f811115610ef5576040517fb3512b0c00000000000000000000000000000000000000000000000000000000815260040160405180910390fd5b80915050919050565b600080fd5b600080fd5b600073ffffffffffffffffffffffffffffffffffffffff82169050919050565b6000610f3382610f08565b9050919050565b610f4381610f28565b8114610f4e57600080fd5b50565b600081359050610f6081610f3a565b92915050565b600060208284031215610f7c57610f7b610efe565b5b6000610f8a84828501610f51565b91505092915050565b6000819050919050565b610fa681610f93565b82525050565b6000602082019050610fc16000830184610f9d565b92915050565b600080fd5b600060c08284031215610fe257610fe1610fc7565b5b81905092915050565b600080fd5b600080fd5b600080fd5b60008083601f8401126110105761100f610feb565b5b8235905067ffffffffffffffff81111561102d5761102c610ff0565b5b60208301915083600182028301111561104957611048610ff5565b5b9250929050565b60008060006040848603121561106957611068610efe565b5b600084013567ffffffffffffffff81111561108757611086610f03565b5b61109386828701610fcc565b935050602084013567ffffffffffffffff8111156110b4576110b3610f03565b5b6110c086828701610ffa565b92509250509250925092565b60008115159050919050565b6110e1816110cc565b82525050565b600081519050919050565b600082825260208201905092915050565b60005b83811015611121578082015181840152602081019050611106565b60008484015250505050565b6000601f19601f8301169050919050565b6000611149826110e7565b61115381856110f2565b9350611163818560208601611103565b61116c8161112d565b840191505092915050565b600060408201905061118c60008301856110d8565b818103602083015261119e818461113e565b90509392505050565b60007fff0000000000000000000000000000000000000000000000000000000000000082169050919050565b6111dc816111a7565b82525050565b600081519050919050565b600082825260208201905092915050565b6000611209826111e2565b61121381856111ed565b9350611223818560208601611103565b61122c8161112d565b840191505092915050565b61124081610f28565b82525050565b6000819050919050565b61125981611246565b82525050565b600081519050919050565b600082825260208201905092915050565b6000819050602082019050919050565b61129481610f93565b82525050565b60006112a6838361128b565b60208301905092915050565b6000602082019050919050565b60006112ca8261125f565b6112d4818561126a565b93506112df8361127b565b8060005b838110156113105781516112f7888261129a565b9750611302836112b2565b9250506001810190506112e3565b5085935050505092915050565b600060e082019050611332600083018a6111d3565b818103602083015261134481896111fe565b9050818103604083015261135881886111fe565b90506113676060830187610f9d565b6113746080830186611237565b61138160a0830185611250565b81810360c083015261139381846112bf565b905098975050505050505050565b60006020820190506113b66000830184611237565b92915050565b60006020820190506113d160008301846110d8565b92915050565b7f54727573746564466f727761726465723a207369676e617475726520646f657360008201527f206e6f74206d6174636820726571756573740000000000000000000000000000602082015250565b60006114336032836111ed565b915061143e826113d7565b604082019050919050565b6000602082019050818103600083015261146281611426565b9050919050565b7f4e487b7100000000000000000000000000000000000000000000000000000000600052601160045260246000fd5b60006114a382610f93565b91506114ae83610f93565b92508282019050808211156114c6576114c5611469565b5b92915050565b600080fd5b600080fd5b600080fd5b600080833560016020038436030381126114f8576114f76114cc565b5b80840192508235915067ffffffffffffffff82111561151a576115196114d1565b5b602083019250600182023603831315611536576115356114d6565b5b509250929050565b600081905092915050565b82818337600083830152505050565b6000611564838561153e565b9350611571838584611549565b82840190509392505050565b60008160601b9050919050565b60006115958261157d565b9050919050565b60006115a78261158a565b9050919050565b6115bf6115ba82610f28565b61159c565b82525050565b60006115d2828587611558565b91506115de82846115ae565b601482019150819050949350505050565b60006115fa826110e7565b611604818561153e565b9350611614818560208601611103565b80840191505092915050565b600061162c82846115ef565b915081905092915050565b600061164383856110f2565b9350611650838584611549565b6116598361112d565b840190509392505050565b60006060820190506116796000830187611237565b6116866020830186611237565b8181036040830152611699818486611637565b905095945050505050565b7f4e487b7100000000000000000000000000000000000000000000000000000000600052604160045260246000fd5b60006116e0828486611558565b91508190509392505050565b600060e082019050611701600083018a611250565b61170e6020830189611237565b61171b6040830188611237565b6117286060830187610f9d565b6117356080830186610f9d565b61174260a0830185610f9d565b61174f60c0830184611250565b98975050505050505050565b7f4e487b7100000000000000000000000000000000000000000000000000000000600052602260045260246000fd5b600060028204905060018216806117a257607f821691505b6020821081036117b5576117b461175b565b5b50919050565b7f4e487b7100000000000000000000000000000000000000000000000000000000600052602160045260246000fd5b60006020820190506117ff6000830184611250565b92915050565b600060a08201905061181a6000830188611250565b6118276020830187611250565b6118346040830186611250565b6118416060830185610f9d565b61184e6080830184611237565b9695505050505050565b600060ff82169050919050565b61186e81611858565b82525050565b60006080820190506118896000830187611250565b6118966020830186611865565b6118a36040830185611250565b6118b06060830184611250565b9594505050505056fea2646970667358221220404197cf1053bb36387b4b7b837eaa4a0b2285acd9bba3dbfb71a7deacacc1fd64736f6c634300081c0033",
  "linkReferences": {},
  "deployedLinkReferences": {}
}